:040000008CEF13F07E
:1003000000CE038803540300000100010000001127
:100310000309024300020100C03209040000010287
:100320000201000524001001042402020524060035
:10033000010524010001070581030A0002090401E7
:1003400000020A00000007050202400000070582C3
:1003500002400000340343004400430020005200E8
:1003600053002D00320033003200200045006D00A4
:1003700075006C006100740069006F006E00200061
:10038000440065006D006F0034034D006900630098
:1003900072006F0063006800690070002000540064
:1003A0006500630068006E006F006C006F006700FE
:1003B0007900200049006E0063002E001201000247
:1003C00002000008D8040A00000101020001040331
:0303D0000904001D
:1003D40002013205D8A4F1EF01F0F3EF01F00DEFC3
:1003E40002F030511F0B0009D8A4FBEF01F0FDEF20
:1003F40001F00DEF02F00C8E030E3119D8A405EFB5
:1004040002F007EF02F00BEF02F0010E356E0DEF74
:1004140002F0000E356E3251D8A413EF02F015EF3E
:1004240002F093EF03F030511F0B020AD8A41DEF22
:1004340002F01FEF02F093EF03F034510F0B0009A9
:10044400D8B427EF02F029EF02F093EF03F0345110
:100454000F0B546E030E546032EF02F034EF02F0CF
:1004640093EF03F0200E3818D8A43BEF02F03DEFD1
:1004740002F093EF03F00C8E34BF43EF02F045EF2C
:1004840002F062EF02F034510F0B546E5450020D1F
:100494006A0EF324D96E000EF420DA6EDECF59F022
:1004A400DDCF5AF034510F0B546E556A7E0E54242E
:1004B400D96E000E5520DA6EDF50586E7DEF02F0D3
:1004C40034510F0B546E5450020D0F0EF324D96E99
:1004D400000EF420DA6EDECF59F0DDCF5AF034513D
:1004E4000F0B546E556A810E5424D96E000E55209C
:1004F400DA6EDF50586E58B082EF02F084EF02F0EB
:100504008CEF02F0FB0E5914596EFF0E5A145A6EFA
:1005140091EF02F0040E5910596E5A505A6E34BFBE
:1005240096EF02F098EF02F0A9EF02F034510F0BAE
:10053400546E5450020D6A0EF324D96E000EF4204A
:10054400DA6E59C0DEFF5AC0DDFFB8EF02F0345155
:100554000F0B546E5450020D0F0EF324D96E000E7F
:10056400F420DA6E59C0DEFF5AC0DDFF030E3119E4
:10057400D8A4BFEF02F0C1EF02F0FBEF02F059C0C4
:10058400D9FF5AC0DAFFDFAECAEF02F0CCEF02F0B7
:10059400EDEF02F034BFD1EF02F0D3EF02F0E1EF60
:1005A40002F034510F0B546E556A7E0E5424D96EEA
:1005B400000E5520DA6E0001DF82EDEF02F03451B7
:1005C4000F0B546E556A810E5424D96E000E5520BB
:1005D400DA6E0001DF8259C0D9FF5AC0DAFF000E7B
:1005E400DB8459C0D9FF5AC0DAFF000EDB8E93EFCB
:1005F40003F0040E5918596E5A505A6E59C0D9FF57
:100604005AC0DAFFDFAE09EF03F00BEF03F027EF78
:1006140003F059C0D9FF5AC0DAFF7F0EDF1659C064
:10062400D9FF5AC0DAFF000EDB8C000E4D6E050EAA
:100634004C6E59C04EF05AC04FF0000E516E020E6F
:10064400506E1DEC12F02DEF03F059C0D9FF5AC0C3
:10065400DAFF000EDB8C040E5918596E5A505A6E8C
:1006640058B237EF03F039EF03F044EF03F059C009
:10067400D9FF5AC0DAFFDFAE42EF03F044EF03F0D4
:100684007CEF03F0020134BF4AEF03F04CEF03F0B8
:100694005AEF03F034510F0B546E556A7E0E5424F6
:1006A400D96E000E5520DA6E0001DF9266EF03F07A
:1006B40034510F0B546E556A810E5424D96E000EBA
:1006C4005520DA6E0001DF9259C0D9FF5AC0DAFF13
:1006D4003B0EDF16000E4D6E050E4C6E59C04EF0EB
:1006E4005AC04FF0000E516E020E506E1DEC12F007
:1006F40082EF03F059C0D9FF5AC0DAFF3B0EDF1670
:10070400020134510F0B546E556A530E5424566E25
:100714000F0E5520576E56C0D9FF57C0DAFFFE0E94
:10072400DF1612003850D8A49AEF03F09CEF03F0C0
:10073400B3EF03F0000E646E000E606E160E616E71
:100744009F0E0F015B6F7B0E606EAAEF03F0648651
:1007540064A6AFEF03F0B1EF03F0A9EF03F0010ECD
:10076400386E3804D8A4B9EF03F0BBEF03F0CAEF36
:1007740003F064BAC0EF03F0C2EF03F0CAEF03F072
:10078400000E626E000E606E60806088020E386E2D
:1007940062A4CFEF03F0D1EF03F0DBEF03F060A42A
:1007A400D6EF03F0D8EF03F0DBEF03F062943AECFA
:1007B40014F064A2E0EF03F0E2EF03F0E5EF03F0DE
:1007C400A194C8EF04F062A0EAEF03F0ECEF03F0A9
:1007D400F8EF03F060A0F1EF03F0F3EF03F0F8EFAC
:1007E40003F009EC08F0040E386E629062A8FDEF85
:1007F40003F0FFEF03F008EF04F060A804EF04F047
:1008040006EF04F008EF04F0FFEC14F062AC0DEF17
:1008140004F00FEF04F03AEF04F060AC14EF04F0CE
:1008240016EF04F024EF04F0000E4D6E730E4C6EC0
:10083400000E4E6E000E4F6E000E516E010E506E85
:100844001DEC12F0629CCDEC14F03150D8B42DEFB5
:1008540004F02FEF04F030EF04F031063150D8A447
:1008640036EF04F038EF04F03AEF04F079EC0FF0CF
:1008740062AA3FEF04F041EF04F04AEF04F060AAEB
:1008840046EF04F048EF04F04AEF04F02AEC13F0CA
:1008940062A24FEF04F051EF04F068EF04F060A29D
:1008A40056EF04F058EF04F068EF04F07F0E4D6E3D
:1008B4004C68000E4E6E000E4F6E000E516E010E0F
:1008C400506E1DEC12F0000E0F015F6F040E3860C5
:1008D4006EEF04F070EF04F073EF04F0A194C8EF2E
:1008E40004F060A678EF04F07AEF04F0C7EF04F0A8
:1008F400000E5E6E62A681EF04F083EF04F0C7EF92
:1009040004F063CF3CF03C30E832E8320F0B336E36
:1009140062963CB490EF04F092EF04F09CEF04F084
:100924007E0E3324D96EDA6A000EDA220001DF70FB
:10093400A4EF04F0810E3324D96EDA6A000EDA22B1
:100944000001DF703350D8A4AAEF04F0ACEF04F038
:10095400B0EF04F064EC10F0BEEF04F0000E4D6E46
:10096400720E4C6E3C0E4E6E000E4F6E000E516EAB
:10097400000E506E1DEC12F05E2A030E5E64C5EF8D
:1009840004F0C7EF04F07CEF04F0A1941200B2EF7E
:1009940005F085EC15F04E6E7BEC15F04F6E4F5064
:1009A400D8A4D7EF04F0D9EF04F0E1EF04F0010E7E
:1009B400246E000E166E000E156ECBEF05F04E047D
:1009C400D8A4E7EF04F0E9EF04F0CBEF05F0000E54
:1009D4003E6E010E3F6E500E406E000E416EBCEC3A
:1009E40013F00009D8A4F9EF04F0FBEF04F0FDEFD5
:1009F40004F0CBEF05F000018451175C1850800A15
:100A04004C6E8551800A4C58D8B00BEF05F00DEFB1
:100A140005F00FEF05F0CBEF05F05050FDEC0EF0B4
:100A24000009D8B418EF05F01AEF05F0CBEF05F084
:100A3400000E3E6E010E3F6EB2EC12F0000E186E08
:100A4400000E176ECBEF05F085EC15F0E806D8A480
:100A54002EEF05F030EF05F038EF05F0020E246EAE
:100A6400000E166E000E156ECBEF05F0154A162A11
:100A740016BE46EF05F0165009E1970E155CD8A096
:100A840046EF05F048EF05F0CBEF05F0000E246EBD
:100A9400CBEF05F0154A162A16BE5AEF05F0D10E13
:100AA400155C070E1658D8A05AEF05F05CEF05F058
:100AB4005EEF05F0000E246E7BEC15F0E806D8A47A
:100AC40066EF05F068EF05F06AEF05F0CBEF05F08F
:100AD400510E406E000E416ED2EC0BF00009D8B4FA
:100AE40076EF05F078EF05F048EF05F03B50D8B409
:100AF4007EEF05F080EF05F0A5EF05F0000E3B6EEC
:100B0400000E3E6E010E3F6EFA0E5F6E5FC040F047
:100B1400C8EC11F0000E186E000E176E000E0001E6
:100B2400856F040E846F020ED56FED0ED66F51C023
:100B3400D7F0D50E3E6E000E3F6E030E406E68EC8D
:100B440015F048EF05F03B0E456E000E466E5F0E45
:100B5400476E000E486E51504FEC07F048EF05F019
:100B640024504C6E4D6A4D50000AD8B4BCEF05F0C9
:100B7400CBEF05F04C50000AD8B4CBEF04F0010AD7
:100B8400D8B426EF05F0030AD8B44CEF05F0CBEF48
:100B940005F0120019501A10D8B4D3EF05F0D5EFB0
:100BA40005F0E2EF05F019C0D9FF1AC0DAFFDFAE95
:100BB400DEEF05F0E0EF05F0E2EF05F093EF06F06D
:100BC400030E2918D8A4E9EF05F0EBEF05F0EDEFDB
:100BD40005F0000E296E2950D8A4F3EF05F0F5EFC7
:100BE40005F0F7EF05F093EF06F0020E2918D8A4EC
:100BF400FEEF05F000EF06F013EF06F0010E3E6E77
:100C0400000E3F6E000E406E000E416E020E9AEC16
:100C14000AF03EC019F03FC01AF0030E296E93EF9C
:100C240006F02904D8A419EF06F01BEF06F093EFA1
:100C340006F0400E286421EF06F023EF06F027EFBC
:100C440006F0400E4A6E29EF06F028C04AF04A50DA
:100C5400285C286E400E0001786F020E796F4AC03E
:100C640049F02750D8A439EF06F03BEF06F065EFC2
:100C740006F04CEF06F07BC0D9FF7CC0DAFF78C0E9
:100C8400E1FF79C0E2FFDFCFE7FF784B792B7B4BA5
:100C94007C2B49064950D8A452EF06F054EF06F0D5
:100CA4003DEF06F06DEF06F07BC0D9FF7CC0DAFFA4
:100CB40078C0E1FF79C0E2FFDFCFE7FF784B792B03
:100CC4007B4B7C2B49064950D8A46BEF06F06DEFA3
:100CD40006F056EF06F02850D8A473EF06F075EF2F
:100CE40006F084EF06F0400E4A18D8A47CEF06F014
:100CF4007EEF06F082EF06F0020E296E84EF06F016
:100D0400030E296E010E3E6E400E3F6E020E406EC3
:100D14004AC041F0020E9AEC0AF03EC019F03FC0FE
:100D24001AF012003EC048F03FC049F04250431050
:100D3400D8A49FEF06F0A1EF06F0A3EF06F04EEF64
:100D440007F048C0D9FF49C0DAFF40C0DFFF425076
:100D54004824446E43504920456EFF0E4424D96E06
:100D6400FF0E4520DA6E40C0DFFF435007E1030E5B
:100D7400425CD8B0C0EF06F0C2EF06F0C4EF06F054
:100D84004EEF07F020EE01F04850D9264950DA2200
:100D940040C0DFFF20EE02F04850D9264950DA2245
:100DA40040C0DFFF42504824446E43504920456E02
:100DB400FE0E4424D96EFF0E4520DA6E40C0DFFFDC
:100DC40042504824446E43504920456EFD0E44244D
:100DD400D96EFF0E4520DA6E40C0DFFF435007E1B5
:100DE400070E425CD8B0F9EF06F0FBEF06F0FDEF1A
:100DF40006F04EEF07F020EE03F04850D926495094
:100E0400DA2240C0DFFF42504824446E4350492058
:100E1400456EFC0E4424D96EFF0E4520DA6E40C0A8
:100E2400DFFF435007E1090E425CD8B01CEF07F026
:100E34001EEF07F020EF07F04EEF07F048C044F034
:100E440049C045F0441E451E444A452A030E441435
:100E5400466E476A46504826475049224650425EED
:100E64004750435AFC0E4216FF0E431645EF07F057
:100E740048C0D9FF49C0DAFF40C0DFFF4206D8A00E
:100E84004306484A492A42504310D8A44CEF07F07D
:100E94004EEF07F03AEF07F012004B6EE7EF07F062
:100EA400000E3E6E010E3F6E47C0D9FF48C0DAFF08
:100EB400FA0EDF6EDF50406EC8EC11F0000E186EB3
:100EC400000E176E000E0001856F040E846F45C07E
:100ED400D9FF46C0DAFF010EDF6E08EF08F0000EFE
:100EE4003E6E010E3F6E47C0D9FF48C0DAFFAA0E1E
:100EF400DF6EDF50406EC8EC11F0010E0001DC6FB4
:100F04004BC0DDF0DC0E3E6E000E3F6E020E406EF6
:100F140068EC15F0000E186E000E176E000E00013E
:100F2400856F0A0E846F08EF08F0000E3E6E010E06
:100F34003F6E47C0D9FF48C0DAFFEE0EDF6EDF50C8
:100F4400406EC8EC11F008EF08F0000E3E6E010E82
:100F54003F6E47C0D9FF48C0DAFFFA0EDF6EDF509C
:100F6400406EC8EC11F0000E186E000E176E000EE5
:100F74000001856F040E846F010EDA6F4BC0DBF045
:100F8400DA0E3E6E000E3F6E020E406E68EC15F0F7
:100F940008EF08F0000E3E6E010E3F6E47C0D9FF09
:100FA40048C0DAFFDF50406EC8EC11F0010E0001BA
:100FB400D86F4BC0D9F0D80E3E6E000E3F6E020EB5
:100FC400406E68EC15F008EF08F04B50496E4A6A21
:100FD4004A50000AD8B4F1EF07F008EF08F049507E
:100FE400ED0AD8B452EF07F0030AD8B497EF07F02C
:100FF4001C0AD8B4A7EF07F00C0AD8B4CCEF07F05A
:10100400010AD8B471EF07F008EF08F01200A094B9
:10101400000E0F015F6F000E626E000E536F540ED0
:101024003E6E0F0E3F6E000E416E000E406E000EBF
:10103400436E020E426E94EC06F0160E616E9F0E25
:101044000F015B6F7B0E606E000E4A6E4A50040DFA
:10105400000EF324D96E020EF420DA6EDE6ADE6A24
:10106400DE6ADD6A4A2A0B0E4A643BEF08F03DEF64
:1010740008F028EF08F0648C000E0F015C6F649890
:10108400649C6296000E0C6E000E046E000E066EDA
:10109400000E056E62B651EF08F053EF08F043EF0F
:1010A40008F0010E2F6E010E2E6E000E2D6E000E36
:1010B4002C6E000E346E000E4A6E4A50020D0F0E56
:1010C400F324D96E000EF420DA6E000EDE6E000EEC
:1010D400DD6E4A50020D6A0EF324D96E000EF42020
:1010E400DA6E000EDE6E000EDD6E810E4A24D96EBD
:1010F400DA6A000EDA22000EDF6E7E0E4A24D96E02
:10110400DA6A000EDA22000EDF6E4A2A020E4A6400
:101114008EEF08F090EF08F05FEF08F0080E0F6E06
:10112400020E106E160E0F01536F020E0201036FB2
:10113400300E026F080E016F040E006F008F000E58
:101144003D6E000E0001746F000E756F000E766F19
:10115400000E776F000E2B6E000E386E1200800E9C
:1011640002013019D8A4B9EF08F0BBEF08F058EF2A
:1011740009F0C00E0C6E3FEF09F0BC0E096E030EB1
:101184000A6E000E0E6E120E0D6E58EF09F03251FB
:10119400D8A4CFEF08F0D1EF08F00FEF09F03251E7
:1011A400020D0F0EF324F66E030EF420F76E090001
:1011B400F5CF09F00A00F5CF0AF0020E09243E6EBD
:1011C400000E0A203F6E3EC0F6FF3FC0F7FFF86AEC
:1011D400020EF76403D00800F55005D0F6CFE1FF06
:1011E400F7CFE2FFE7500D6E030E09243E6E000EAA
:1011F4000A203F6E3EC0F6FF3FC0F7FFF86A020EBA
:10120400F76403D00800F55005D0F6CFE1FFF7CF1F
:10121400E2FFE7500E6E58EF09F0000E0C6E58EF27
:1012240009F0030E326119EF09F01BEF09F00FEF1B
:1012340009F03251020D010EF324F66E030EF42070
:10124400F76E0900F5CF09F00A00F5CF0AF009C0DE
:10125400F6FF0AC0F7FFF86A020EF76403D008002D
:10126400F55005D0F6CFE1FFF7CFE2FFE7503E6E31
:101274003E500D6E0E6A58EF09F033513E6E3F6AD0
:101284003F50000AD8B449EF09F00FEF09F03E507F
:10129400010AD8B4BFEF08F0030AD8B4C9EF08F0C4
:1012A400010AD8B413EF09F00FEF09F0120020EE91
:1012B40001F02150D9262250DA22DF503F6E3F50F0
:1012C400055C000E0658D8B06AEF09F06CEF09F01F
:1012D4006EEF09F005C03FF03F50055E000E065A60
:1012E400000E3E6E85EF09F0380E3E24D96EDA6AA0
:1012F400020EDA2201C0E1FF02C0E2FFDFCFE7FF06
:10130400014A022A3E2A3F503E5CD8A08CEF09F0E5
:101314008EEF09F076EF09F005500610D8B495EF7A
:1013240009F097EF09F0D0EF09F020EE01F01F501B
:10133400D9262050DA22080EDF6E20EE02F01F506C
:10134400D9262050DA22380EDE6E020EDD6E21C060
:10135400D9FF22C0DAFFDFBCB2EF09F0B4EF09F025
:10136400C2EF09F01FC0D9FF20C0DAFF480EDF6EBC
:101374001FC0D9FF20C0DAFF000EDB8EF9EF09F0A1
:101384001FC0D9FF20C0DAFF080EDF6E1FC0D9FFCF
:1013940020C0DAFF000EDB8EF9EF09F020EE01F039
:1013A4001F50D9262050DA22080EDF6E20EE02F0FC
:1013B4001F50D9262050DA22300EDE6E020EDD6E6A
:1013C4001FC0D9FF20C0DAFF040EDF6E1FC0D9FF93
:1013D40020C0DAFF000EDB8E049E3050D8A4F5EF57
:1013E40009F0F7EF09F0F9EF09F079EC0FF01200CA
:1013F40064980CBE00EF0AF002EF0AF047EF0AF01F
:1014040004AE07EF0AF009EF0AF01BEF0AF0020E30
:10141400366E2C50D8A411EF0AF013EF0AF015EF32
:101424000AF072EC11F0000E2E6E000E2F6E99EF82
:101434000AF020EE01F01F50D9262050DA22080EBF
:10144400DF6E20EE02F01F50D9262050DA22300E33
:10145400DE6E020EDD6E1FC0D9FF20C0DAFF0C0E57
:10146400DF6E1FC0D9FF20C0DAFF000EDB8E0FC075
:10147400D9FF10C0DAFF040EDF6E0FC0D9FF10C011
:10148400DAFF000EDB8E99EF0AF0020130AF4DEF68
:101494000AF04FEF0AF06BEF0AF0010E366E2D5092
:1014A400D8A457EF0AF059EF0AF05BEF0AF072EC98
:1014B40011F0000E2E6E000E2F6E3050D8A465EF82
:1014C4000AF067EF0AF099EF0AF079EC0FF099EF60
:1014D4000AF0020E366E20EE01F01F50D92620507D
:1014E400DA22080EDF6E20EE02F01F50D9262050BB
:1014F400DA22300EDE6E020EDD6E1FC0D9FF20C070
:10150400DAFF040EDF6E1FC0D9FF20C0DAFF000E21
:10151400DB8E000E2E6E000E2F6E3050D8A495EF89
:101524000AF097EF0AF099EF0AF067EF0AF0120059
:10153400466E3E50D8B4A1EF0AF0A3EF0AF0B1EF23
:101544000AF04650020D0F0EF324D96E000EF4205B
:10155400DA6EDECF47F0DDCF48F0BDEF0AF046503B
:10156400020D6A0EF324D96E000EF420DA6EDECF7B
:1015740047F0DDCF48F047504810D8A4C4EF0AF034
:10158400C6EF0AF0CCEF0AF0000E3E6E000E3F6E7E
:1015940038EF0BF020EE02F04750D9264850DA22FB
:1015A4003FC0DEFF40C0DDFF20EE01F04750D926EA
:1015B4004850DA2241C0DFFF47C0D9FF48C0DAFFF4
:1015C400400EDF1647C0D9FF48C0DAFF000EDB86A5
:1015D40047C0D9FF48C0DAFF000EDB8E3E50D8B4B6
:1015E400F6EF0AF0F8EF0AF017EF0BF04650020D91
:1015F4000F0EF324D96E000EF420DA6EDECF42F023
:10160400DDCF43F0040E4218446E4350456E4650FD
:10161400020D0F0EF324D96E000EF420DA6E44C0CE
:10162400DEFF45C0DDFF34EF0BF04650020D6A0EBD
:10163400F324D96E000EF420DA6EDECF42F0DDCF53
:1016440043F0040E4218446E4350456E4650020D5A
:101654006A0EF324D96E000EF420DA6E44C0DEFF65
:1016640045C0DDFF47C03EF048C03FF01200000E09
:101674004F6E860E496E000E4A6E400E4B6EC0ECE5
:1016840010F04D6E4D50506E516A51BE52EF0BF03A
:10169400515008E15004D8A052EF0BF054EF0BF076
:1016A400AEEF0BF098EF0BF0010E4F6EAEEF0BF0B8
:1016B400000E536E010E526E51BE6CEF0BF0515082
:1016C40007E1020E505CD8B06AEF0BF06CEF0BF040
:1016D4006EEF0BF08DEF0BF0000E3E6E010E3F6EC1
:1016E400860E5224D96E000E5320DA6EDF50406EFF
:1016F400C8EC11F0524A532A5050525C5350800A9D
:101704004D6E5150800A4D58D8A08BEF0BF08DEFE1
:101714000BF06EEF0BF0000E186E000E176E000E3D
:101724000001856F0A0E846FAEEF0BF00001865145
:101734004D6E4E6A4E50000AD8B4A3EF0BF0AEEFD4
:101744000BF04D50490AD8B456EF0BF01A0AD8B42E
:101754005AEF0BF0AEEF0BF08FEC15F02518D8B460
:10176400B6EF0BF0B8EF0BF0BDEF0BF08FEC15F00C
:10177400256E010E4F6E4F50D8B4C3EF0BF0C5EF7A
:101784000BF0D1EF0BF02550300F0001E76FDE0EA8
:101794003E6E000E3F6E0A0E406E68EC15F01200AD
:1017A40041EC15F00009D8A4DAEF0BF0DCEF0BF0F4
:1017B400DFEF0BF0000E5FEF0CF0000E456E000E35
:1017C400446E000E486E000E476E7BEC15F0466EBC
:1017D4004650452647C042F046C043F0422AF5EF42
:1017E4000BF0D8904336422EF3EF0BF043504412E3
:1017F40041EC15F00009D8A402EF0CF004EF0CF052
:1018040006EF0CF0DCEF0BF0474A482A48BE14EF11
:101814000CF0485009E1080E475CD8A014EF0CF016
:1018240016EF0CF0E7EF0BF07BEC15F0452645B016
:101834001EEF0CF020EF0CF022EF0CF0DCEF0BF0BD
:1018440041EC15F00009D8A42AEF0CF02CEF0CF0B1
:101854002EEF0CF0DCEF0BF07BEC15F00009D8A4B4
:1018640036EF0CF038EF0CF03AEF0CF0DCEF0BF045
:10187400000E3F6E010E3E6EA0EC15F0000E3F6EA2
:10188400010E3E6EA6EC15F0500EE82EFED7000EAB
:101894003F6E000E3E6EA6EC15F0500EE82EFED7FD
:1018A400000E3F6E000E3E6EA0EC15F040C0D9FF56
:1018B40041C0DAFF44C0DFFF010E1200000E020136
:1018C400386F000E396FC2EF0CF00C8E3504D8A4BB
:1018D4006EEF0CF070EF0CF0DCEF0CF03883DCEF03
:1018E4000CF00C8EDCEF0CF00C8E34510F0B000955
:1018F400D8B47FEF0CF081EF0CF0DCEF0CF034BFC8
:1019040086EF0CF088EF0CF099EF0CF034510F0BCC
:101914003E6E3E50020D6A0EF324D96E000EF42082
:10192400DA6EDECF40F0DDCF41F0A8EF0CF0345199
:101934000F0B3E6E3E50020D0F0EF324D96E000EB7
:10194400F420DA6EDECF40F0DDCF41F040C0D9FFA5
:1019540041C0DAFFDFAEB1EF0CF0B3EF0CF0DCEF17
:101964000CF040C0D9FF41C0DAFFDFA4BCEF0CF09B
:10197400BEEF0CF0DCEF0CF0010E386FDCEF0CF076
:1019840030511F0B3E6E3F6A3F50000AD8B4CDEF72
:101994000CF0DCEF0CF03E50000AD8B467EF0CF00A
:1019A400010AD8B473EF0CF0030AD8B476EF0CF044
:1019B400DCEF0CF00CAEE1EF0CF0E3EF0CF0EAEF2F
:1019C4000CF0380E096E020E0A6E0C80020E0D6EBB
:1019D400120002013039E832030B0009D8B4F5EFE4
:1019E4000CF0F7EF0CF03BEF0DF074EF0DF00C8EF4
:1019F400080E386E74EF0DF0B1EC08F074EF0DF0D2
:101A0400F1EC0FF074EF0DF03D0E096E000E0A6E4E
:101A14000C80010E0D6E0C8E74EF0DF060EC0CF06A
:101A240074EF0DF0EAEC01F074EF0DF0390E34258B
:101A3400096E0A6A000E0A220AEF0DF00C8E390EA6
:101A44003425D96EDA6A000EDA2232C2DFFF74EF6F
:101A54000DF0000E4D6E020E4C6E000E4E6E000E1A
:101A64004F6E000E516E000E506E1DEC12F074EFAE
:101A74000DF031515B6E5C6A5C50000AD8B445EFDE
:101A84000DF074EF0DF05B50000AD8B410EF0DF0B8
:101A9400010AD8B414EF0DF0020AD8B414EF0DF013
:101AA400060AD8B4F9EF0CF0030AD8B4FEEF0CF030
:101AB400010AD8B42BEF0DF00F0AD8B406EF0DF0DD
:101AC400010AD8B402EF0DF0030AD8B418EF0DF0F0
:101AD400010AD8B420EF0DF0070AD8B474EF0DF062
:101AE40074EF0DF01200080E3E6E0E5007E1080E62
:101AF4000D5CD8B080EF0DF082EF0DF09AEF0DF091
:101B04000DC03EF03750D8A48AEF0DF08CEF0DF0E5
:101B140090EF0DF0010E376E9AEF0DF03704D8A454
:101B240096EF0DF098EF0DF09AEF0DF0020E376E70
:101B34003E500D5E000E0E5A20EE01F00F50D926D5
:101B44001050DA223EC0DFFF380E1D6E020E1E6EEC
:101B54000CB0AFEF0DF0B1EF0DF0F1EF0DF0CDEFF4
:101B64000DF009C0F6FF0AC0F7FFF86A1DC0D9FFDF
:101B74001EC0DAFF020EF76403D00800F55005D04A
:101B8400F6CFE1FFF7CFE2FFE750DF6E094A0A2AFA
:101B94001D4A1E2A3E063E50D8A4D3EF0DF0D5EFC1
:101BA4000DF0B3EF0DF0F9EF0DF009C0F6FF0AC028
:101BB400F7FFF86A1DC0D9FF1EC0DAFF020EF764F2
:101BC40003D00800F55005D0F6CFE1FFF7CFE2FFD0
:101BD400E750DF6E094A0A2A1D4A1E2A3E063E5075
:101BE400D8A4F7EF0DF0F9EF0DF0D7EF0DF01200D8
:101BF4000FC0D9FF10C0DAFF000EDFBC010E3F6E2C
:101C0400040E0F180F6E1050106E080E3818D8A45A
:101C14000EEF0EF010EF0EF023EF0EF00201325132
:101C24007F0B0F015C6F5C51D8B41BEF0EF01DEFFE
:101C34000EF021EF0EF0100E386E23EF0EF0040EAE
:101C4400386E3604D8A429EF0EF02BEF0EF072EFA5
:101C54000EF020EE02F00F50D9261050DA22380E82
:101C6400DE6E020EDD6E75EC0DF0020E3718D8A490
:101C74003EEF0EF040EF0EF04EEF0EF00FC0D9FF26
:101C840010C0DAFF040EDF6E0FC0D9FF10C0DAFFF8
:101C9400000EDB8E7CEF0EF03F50D8A454EF0EF014
:101CA40056EF0EF064EF0EF00FC0D9FF10C0DAFF4C
:101CB400480EDF6E0FC0D9FF10C0DAFF000EDB8EB6
:101CC4007CEF0EF00FC0D9FF10C0DAFF080EDF6EF4
:101CD4000FC0D9FF10C0DAFF000EDB8E7CEF0EF0D0
:101CE40004AE77EF0EF079EF0EF07AEF0EF0049E6B
:101CF400000E366E1200020130511F0BE806D8B4F4
:101D040086EF0EF088EF0EF08AEF0EF0FCEF0EF087
:101D14003039E832030BE806D8B493EF0EF095EFB0
:101D24000EF097EF0EF0FCEF0EF03451D8B49DEFA7
:101D34000EF09FEF0EF0DBEF0EF03405D8B4A5EFF4
:101D44000EF0A7EF0EF0DBEF0EF0FCEF0EF0C60E78
:101D5400096E000E0A6E000E0E6E080E0D6E0C80DB
:101D64000C8EFCEF0EF0C60E096E000E0A6EB2EF7A
:101D74000EF036C205F037C206F0CE0E016E000E2C
:101D8400026E000E076E000E086E048EFCEF0EF05D
:101D9400CE0E096E000E0A6E000E0E6E070E0D6E4C
:101DA400C10E0C6EFCEF0EF032C226F00C8EFCEF6E
:101DB4000EF031513E6E3F6A3F50000AD8B4E5EF51
:101DC4000EF0FCEF0EF03E50000AD8B4A9EF0EF06E
:101DD400010AD8B4B5EF0EF0210AD8B4BBEF0EF067
:101DE400010AD8B4CAEF0EF0030AD8B4D6EF0EF045
:101DF400FCEF0EF01200446E000E416E010E406EB8
:101E040078EC14F00009D8A40AEF0FF00CEF0FF0EF
:101E14000FEF0FF0000E78EF0FF0000E456E000E7E
:101E2400476E000E466E46C042F044C043F0422A5C
:101E34001EEF0FF0D8904332422E1CEF0FF04350A8
:101E4400010B486E485045264850D8B42CEF0FF08B
:101E54002FEF0FF0010E30EF0FF0000E010B486E64
:101E640048C040F0416A78EC14F00009D8A43DEF72
:101E74000FF03FEF0FF041EF0FF00CEF0FF0464A79
:101E8400472A47BE4FEF0FF0475009E1080E465C62
:101E9400D8A04FEF0FF051EF0FF015EF0FF045C042
:101EA40042F0010E42164250406E416A78EC14F042
:101EB4000009D8A460EF0FF062EF0FF064EF0FF0A9
:101EC4000CEF0FF0000E416E000E406E78EC14F033
:101ED4000009D8A470EF0FF072EF0FF074EF0FF059
:101EE4000CEF0FF0500EE82EFED7010E12002F500B
:101EF400D8A47FEF0FF081EF0FF0F0EF0FF0010E99
:101F04002F6E2E50D8A489EF0FF08BEF0FF0F0EF67
:101F14000FF0010E2E6E020E3618D8A494EF0FF0B7
:101F240096EF0FF0ACEF0FF020EE01F00F50D92632
:101F34001050DA22000EDF6E0FC0D9FF10C0DAFF96
:101F4400480EDF6E0FC0D9FF10C0DAFF000EDB8E23
:101F5400F0EF0FF03604D8A4B2EF0FF0B4EF0FF0A7
:101F6400F0EF0FF0000E326E20EE01F02150D92672
:101F74002250DA22080EDF6E20EE02F02150D9261C
:101F84002250DA22300EDE6E020EDD6E21C0D9FF41
:101F940022C0DAFF040EDF6E21C0D9FF22C0DAFFAF
:101FA400000EDB8E010E326E20EE01F01F50D9269A
:101FB4002050DA22080EDF6E20EE02F01F50D926E0
:101FC4002050DA22300EDE6E020EDD6E1FC0D9FF05
:101FD40020C0DAFF800EDF6EF0EF0FF012000C8EDF
:101FE400540E3E6E0F0E3F6E000E416E000E406E9C
:101FF400000E436E020E426E94EC06F0000E3E6E2E
:10200400020E3F6E000E416E000E406E000E436ED7
:10201400300E426E94EC06F0648C000E546E810E09
:102024005424D96EDA6A000EDA22000EDF6E7E0EB8
:102034005424D96EDA6A000EDA22000EDF6E542AB6
:10204400020E546428EF10F02AEF10F011EF10F094
:10205400390E3E6E000E3F6E000E416E000E406E55
:10206400000E436E020E426E94EC06F0649C080E61
:102074000F6E020E106E000E216E020E226E21C033
:102084001FF022C020F032C23DF03D50D8A44DEFE5
:1020940010F04FEF10F053EF10F0100E386E63EFA6
:1020A40010F0000E4D6E010E4C6E3D0E4E6E000E85
:1020B4004F6E000E516E010E506E1DEC12F0200E8C
:1020C400386E12002D0E316E3CC05DF0FD0E5D16B3
:1020D400D8A46FEF10F071EF10F0B3EF10F03CC024
:1020E4005DF0D8905D323F0E5D165D50040D000E1C
:1020F400F324216E020EF420226E21C01FF022C0B0
:1021040020F0040E1F181F6E2050206E21C0D9FF2E
:1021140022C0DAFFDF30E8320F0B0D0AD8A495EFA6
:1021240010F097EF10F0AFEF10F0300E3E6E020E8D
:102134003F6E20EE02F02150D9262250DA22DECF63
:1021440040F0DDCF41F0000E436E080E426EECEC21
:1021540013F06BEC12F0BFEF10F0F0EC12F0BFEFE5
:1021640010F03C50FD0B040AD8A4BBEF10F0BDEFF7
:1021740010F0BFEF10F0FAEC0DF01200000E2A6E12
:102184001B501C10D8B4C9EF10F0CBEF10F0D6EFF1
:1021940010F01BC0D9FF1CC0DAFFDFBED4EF10F073
:1021A400D6EF10F018EF11F020EE01F01B50D926F5
:1021B4001C50DA224B50DE5CD8B0E3EF10F0E5EFB0
:1021C40010F0EDEF10F020EE01F01B50D9261C505A
:1021D400DA22DF504B6E000E2A6E00EF11F0800EF3
:1021E4002A24D96EDA6A020EDA222A504924E16ED0
:1021F400000E4A20E26EDFCFE7FF2A2A4B502A5C0A
:10220400D8A007EF11F009EF11F0F1EF10F0000E74
:102214003E6E800E3F6E020E406E400E416E020E08
:102224009AEC0AF03EC01BF03FC01CF02A5012008A
:10223400456E000E466E020E476E3E503F6E406A7B
:10224400D8903F3640364550416E426AD890413668
:102254004236D890413642363F504124436E405076
:102264004220446ED89043364436D89043364436A0
:10227400435046264450472246C0D9FF47C0DAFFA0
:10228400DF9E3E50D8A449EF11F04BEF11F059EF07
:1022940011F04550020D6A0EF324D96E000EF4209D
:1022A400DA6E46C0DEFF47C0DDFF65EF11F0455032
:1022B400020D0F0EF324D96E000EF420DA6E46C020
:1022C400DEFF47C0DDFF46C0D9FF47C0DAFFDF9C11
:1022D40020EE04F04650D9264750DA22DF8C120053
:1022E400000E2D6E000E2C6E020E3618D8A47DEF53
:1022F40011F07FEF11F09FEF11F020EE01F01F506D
:10230400D9262050DA22080EDF6E20EE02F01F508C
:10231400D9262050DA22380EDE6E020EDD6E1FC082
:10232400D9FF20C0DAFF480EDF6E1FC0D9FF20C0DE
:10233400DAFF000EDB8EC7EF11F00D500201365D9F
:102344000E503759D8B0A9EF11F0ABEF11F0AFEF41
:1023540011F036C20DF037C20EF075EC0DF020EE20
:1023640002F00F50D9261050DA22380EDE6E020E1B
:10237400DD6E0FC0D9FF10C0DAFF480EDF6E0FC04C
:10238400D9FF10C0DAFF000EDB8E120020EE04F03D
:102394003E50D9263F50DA22010EDBBEDCEF11F0AD
:1023A400010EDB5009E1140EDE5CD8A0DCEF11F065
:1023B400DEEF11F0E0EF11F01CEF12F03EC0D9FF98
:1023C4003FC0DAFFDECF41F0DDCF42F041503E2482
:1023D400436E42503F20446E060E4324D96E000ED5
:1023E4004420DA6E40C0DFFF3EC0D9FF3FC0DAFFB1
:1023F400DE2A000EDD2220EE04F03E50D9263F50A6
:10240400DA22DE2A000EDD223EC0D9FF3FC0DAFF09
:10241400800EDE18DE10D8A412EF12F014EF12F0C2
:102424001CEF12F03EC0D9FF3FC0DAFF000EDE6E93
:10243400000EDD6E120031EF12F0010EB2EC14F05A
:102444006AEF12F0020EB2EC14F06AEF12F05BECD9
:1024540013F06AEF12F07DEC0EF06AEF12F04CC04C
:1024640052F04DC053F05350000AD8B440EF12F06C
:102474007F0AD8B463EF12F06AEF12F05250010AE7
:10248400D8B429EF12F0030AD8B46AEF12F0010AA3
:10249400D8B42DEF12F0060AD8B46AEF12F0770A16
:1024A400D8B46AEF12F0010AD8B46AEF12F0070A3E
:1024B400D8B424EF12F0010AD8B41FEF12F06AEF77
:1024C40012F05250FF0AD8B46AEF12F06AEF12F019
:1024D4001200000E376E000E306E000E2D6E000ED0
:1024E4002C6E000E326E000E366E0FC0D9FF10C077
:1024F400DAFF7F0EDF16040E0F180F6E1050106EE9
:102504000FC0D9FF10C0DAFF7F0EDF16040E0F18BC
:102514000F6E1050106E1FC0D9FF20C0DAFF7F0E5F
:10252400DF16000E0C6E000E0E6E000E0D6E000E09
:10253400046E000E066E000E056EEBEC0CF0000E41
:102544004D6E030E4C6E000E4E6E000E4F6E000E5E
:10255400516E000E506E1DEC12F0FAEC09F01200F0
:1025640020EE04F03E50D9263F50DA22DE50DE1031
:10257400D8A4BFEF12F0C1EF12F0C3EF12F0EFEFE7
:1025840012F020EE02F03E50D9263F50DA22DE2A25
:10259400000EDD2220EE04F03E50D9263F50DA2210
:1025A400DE06000EDD5A20EE02F03E50D9263F50E2
:1025B400DA22800EDE18DE10D8A4E3EF12F0E5EF85
:1025C40012F0EFEF12F020EE02F03E50D9263F5009
:1025D400DA22000EDE6E000EDD6E1200020E3618D8
:1025E400D8A4F7EF12F0F9EF12F0FDEF12F059EC66
:1025F40009F029EF13F0000E366E3250D8A405EF1F
:1026040013F007EF13F027EF13F020EE01F01F5043
:10261400D9262050DA22080EDF6E20EE02F01F5079
:10262400D9262050DA22300EDE6E020EDD6E1FC077
:10263400D9FF20C0DAFF0C0EDF6E1FC0D9FF20C007
:10264400DAFF000EDB8E29EF13F0000E326E12005B
:102654000F0153A130EF13F032EF13F059EF13F0E1
:1026640021C0D9FF22C0DAFF800EDE18D8A43DEFC6
:1026740013F03FEF13F058EF13F00FC0D9FF10C061
:10268400DAFF840EDE18D8A44AEF13F04CEF13F0EF
:1026940058EF13F021C0D9FF22C0DAFF0C0EDF6E11
:1026A40021C0D9FF22C0DAFF000EDB8E5391629A5B
:1026B4001200800E0001CE6F250ECF6F000ED06F7A
:1026C400000ED16F000ED26F000ED36F080ED46FC0
:1026D400000E2A6E1A0E486E010E14EC14F01E0E33
:1026E400486E020E14EC14F0000E3E6E800E3F6E27
:1026F400020E406E400E416E020E9AEC0AF03EC08D
:102704001BF03FC01CF0000E196E000E1A6E000E76
:10271400296E1200580EF66E2B0EF76E000EF86E30
:1027240000EEDEF010EE0BF00900F5CFEEFFE55001
:10273400E150FAE16E0EF66E2B0EF76E000EF86E97
:102744000900F5CF5FF001EE00F0860EEE6AE806B0
:10275400FDE100EE60F07E0EEE6AE806FDE100EEBB
:1027640001F03D0EEE6AE806FDE1000EF86E000190
:1027740055EF15F020EE04F03E50D9263F50DA22F2
:10278400DE50DE10D8A4C9EF13F0CBEF13F0CEEF78
:1027940013F0000EEBEF13F020EE02F03E50D926BA
:1027A4003F50DA22DECF42F0DDCF43F042503E24E8
:1027B400446E43503F20456E060E4424D96E000EED
:1027C4004520DA6E40C0E1FF41C0E2FFDFCFE7FF02
:1027D400010E120040C046F041C047F03EC044F034
:1027E4003FC045F006EF14F046C0D9FF47C0DAFFFA
:1027F400DF50486E464A472A44C0D9FF45C0DAFF35
:1028040048C0DFFF444A452A4206D8A0430642286E
:1028140006E14328D8A411EF14F013EF14F0F6EFF7
:1028240013F012004B6E48A41AEF14F01CEF14F0CE
:1028340021EF14F0000E3E6E4B501AEC11F048A23A
:1028440026EF14F028EF14F02DEF14F0010E3E6E75
:102854004B501AEC11F0530E4B24496E4A6A0F0E7A
:102864004A2249C0D9FF4AC0DAFF48C0DFFF12003C
:10287400000E346E000E4D6E740E4C6E000E4E6ED5
:10288400000E4F6E000E516E000E506E1DEC12F0D5
:10289400649260944FEF14F0629462B454EF14F0B5
:1028A40056EF14F04EEF14F0000E2B6E1200232A94
:1028B400040E2318D8A461EF14F063EF14F077EF3B
:1028C40014F0000E236E18BE73EF14F0185007E1D5
:1028D4000A0E175CD8B071EF14F073EF14F075EFB3
:1028E40014F0174A182A154A162A120040C03EF05E
:1028F40041C03FF0A0EC15F0140EE82EFED7000EF8
:102904003F6E010E3E6EA6EC15F08C0EE82EFED73F
:10291400000E3F6E000E3E6EA6EC15F08C0EE82EF7
:10292400FED7010E12003EC0D9FF3FC0DAFF000EF1
:10293400DE6E000EDD6E20EE02F03E50D9263F50D2
:10294400DA22000EDE6E000EDD6E20EE04F03E5044
:10295400D9263F50DA22000EDE6E000EDD6E120024
:10296400406E40503E6E3F6A3F50000AD8B4BDEFFF
:1029740014F0CCEF14F03E50000AD8B4CCEF14F0AD
:10298400010AD8B4CCEF14F0030AD8B4CCEF14F095
:10299400CCEF14F01200010E00017427000E752311
:1029A400762377233450D8A4DAEF14F0DCEF14F054
:1029B400E6EF14F02B2A2B50D8A4E3EF14F0E5EF44
:1029C40014F0E6EF14F02B6812001F0E3864EDEFDC
:1029D40014F0EFEF14F0FEEF14F064A2F4EF14F02F
:1029E400F6EF14F0F8EF14F0FEEF14F0C9EC04F075
:1029F40039EC0BF059EC14F0120060846298648294
:102A0400010E346E000E2B6E000E4D6E750E4C6E64
:102A1400000E4E6E000E4F6E000E516E000E506E84
:102A24001DEC12F01200000E896E000E8A6E000E6C
:102A34008B6E300E926EF00E936EF30E946E000E4B
:102A44007E6E000E7F6E000E786E000E776EF18E35
:102A540012008FEC15F0256E000E3E6E010E3F6ED7
:102A640095EC14F0000E3F6E000E3E6EA6EC15F0D1
:102A7400000E3F6E000E3E6EA0EC15F01200000E2C
:102A84003F6E010E3E6EA6EC15F08C0EE82EFED7BE
:102A9400000E3F6E000E3E6EA6EC15F08C0EE82E76
:102AA400FED7010E1200B2EC15F0000EB2EC14F0D9
:102AB40009EC08F02BEC15F094EC03F0E7EC14F0BF
:102AC400CCEC05F05EEF15F000EF00F02950D8A42F
:102AD4006EEF15F070EF15F07AEF15F03EC07BF055
:102AE4003FC07CF040C028F0010E276E010E296E15
:102AF400120082B080EF15F083EF15F0010E84EF21
:102B040015F0000E120082B28AEF15F08DEF15F069
:102B1400010E8EEF15F0000E120082B894EF15F03E
:102B240097EF15F0010E98EF15F0000E1200300E1D
:102B3400D36E040ED26E000E9B6E12003EB002D015
:102B44008B9401D08B8412003EB002D08B9601D0BE
:0F2B54008B861200095053325553423A303000ED
:0B2B640015EC15F099EC15F01200AA1A
:020000040020DA
:08000000FFFFFFFFFFFFFFFF00
:020000040030CA
:0E00000000321F0EFF8881FF03C003E00340A3
:00000001FF
